:030000000219944E
:0C199400787FE4F6D8FD7581920219DB23
:0A1A8E00C105026A000002680000B2
:0A1F430000007F047E80DEFEDFFC5C
:011F4D002271
:0C1F29007F0C7E397D7ADDFEDEFCDFFAE5
:011F35002289
:071C4E00900054F0C200FFFA
:021C5500A907DD
:101C5700E4FA7BC83000047A037BE8C2AFE4FCEC0B
:101C6700C3995021900000C3E5829BE5839A5008F1
:101C7700B296121F43A380EFC296E9146C60061256
:071C87001F290C80DAD2AF27
:011C8E002233
:0D1F360075D53075D4F875D10875AF20222F
:101D3400C296C292D293C2B4D2B275924CE4F591D7
:101D440075B212F5B1121EFB121F367F7D121E1AD8
:101D5400121F1BC28EE4F58FC2B4C2007F01021CA5
:011D64005529
:10009E00E4F52CF52DF52EF52F200303020C59C295
:1000AE00037B017A0079527D3C121D968F2B9000B6
:1000BE0052E064AA6003020C5974512FF582E434A5
:1000CE0000F583E064EE6003020C597B017A00793F
:1000DE0052E52B24FDFD121B7C900050EEF0A3EF99
:1000EE00F07450252BF582E43400F583E0FF900088
:1000FE0050E0FEEF6E6003020C59744F252BF58213
:10010E00E43400F583E0FF900051E0FEEF6E6003F3
:10011E00020C59D292900053E0B4FF0AA3E0B4FF50
:10012E0005D205020A7C900053E0240F70030204EE
:10013E00A9147003020A53147003020A8614700382
:10014E00020B0024046003020C57900054E0F52CBF
:10015E00900056E0F52DE4F52974572529F582E433
:10016E003400F583E0FF74212529F8A6070529E55B
:10017E0029B404E5900055E020E4030202CB900080
:10018E005374F0F0E4A3F0752B04A3E024EC60723A
:10019E0024FE7003020272240460030209F7AF24E6
:1001AE00AE23AD22AC218F368E358D348C33852C1B
:1001BE0037AB2D7D017F0112117A900054EFF06064
:1001CE0024E4F529746F2529F8E6FFAE2B052B7470
:1001DE00522EF582E43400F583EFF00529E529B4BB
:1001EE0004E20202A1E4F529AF2B052B74522FF580
:1001FE0082E43400F583E4F00529E529B404E9022C
:10020E0002C1AF24AE23AD22AC218F368E358D3494
:10021E008C33852C37AB2D7D027F0112117A900025
:10022E0054EFF06023E4F529746F2529F8E6FFAE4C
:10023E002B052B74522EF582E43400F583EFF00576
:10024E0029E529B404E2804BE4F529AF2B052B7484
:10025E00522FF582E43400F583E4F00529E529B444
:10026E0004E9804FAD2C7F0112148F900054EFF0F3
:10027E006027E4F529746F2529F8E6FFAE2B052BD0
:10028E0074522EF582E43400F583EFF00529E5294A
:10029E00B408E2C2007F01801EE4F529AF2B052BC6
:1002AE0074522FF582E43400F583E4F00529E52934
:1002BE00B408E9C2007F02121C550209F7900053E0
:1002CE0074F0F0E4A3F0A3E0540FF0640F600302A7
:1002DE000435E52D70030203D9752901752B04AF82
:1002EE0024AE23AD22AC218F368E358D348C3385E2
:1002FE002C37AB2DAD29E4FF12117A900054EFF09C
:10030E006027E4F52A746F252AF8E6FFAE2B052B3D
:10031E0074522EF582E43400F583EFF0052AE52AB7
:10032E00B404E2C2007F01801EE4F52AAF2B052B38
:10033E0074522FF582E43400F583E4F0052AE52AA1
:10034E00B404E9C2007F02121C55900055E529F055
:10035E007B017A007952AD2B121B7C900050EEF08F
:10036E00A3EFF0900050E0FFAE2B052B74522EF54C
:10037E0082E43400F583EFF0900051E0FFAE2B05E0
:10038E002B74522EF582E43400F583EFF0AF2B057B
:10039E002B74522FF582E43400F58374EEF07B015A
:1003AE007A007952AD2B121E7EE4F52A7F507EC361
:1003BE00121E67052AE52AC3940440F00529E52993
:1003CE00C3940750030202EA020C57AD2CE4FF124D
:1003DE00148F900054EFF0752B046027E4F5297408
:1003EE006F2529F8E6FFAE2B052B74522EF582E40D
:1003FE003400F583EFF00529E529B41CE2C2007F35
:10040E0001801EE4F529AF2B052B74522FF582E4E3
:10041E003400F583E4F00529E529B41CE9C2007F18
:10042E0002121C550209F7752B04AF24AE23AD2220
:10043E00AC218F368E358D348C33852C379000550C
:10044E00E0FDAB2DE4FF12117A900054EFF060271F
:10045E00E4F529746F2529F8E6FFAE2B052B7452AF
:10046E002EF582E43400F583EFF00529E529B40476
:10047E00E2C2007F01801EE4F529AF2B052B7452DA
:10048E002FF582E43400F583E4F00529E529B40460
:10049E00E9C2007F02121C550209F7900054E0F5E4
:1004AE002CE4F52974582529F582E43400F583E00F
:1004BE00FF74212529F8A6070529E529B404E5903E
:1004CE000056E0F52EA3E0F52D900055E020E40354
:1004DE0002078724EC700302059324FE70030206C4
:1004EE003324046003020C57E4F52A745C252AF5C4
:1004FE0082E43400F583E0FF7425252AF8A607056B
:10050E002AE52AB404E5AF24AE23AD22AC218F3602
:10051E008E358D348C33AF28AE27AD26AC258F3A71
:10052E008E398D388C37852F3BAB2D7D017F011297
:10053E0018E4AF24AE23AD22AC218F368E358D3428
:10054E008C33852C37AB2D7D017F0112117A9000F3
:10055E0054EFF06026786FE6B5251508E6B526103F
:10056E0008E6B5270B08E6B52806C2007F01800F06
:10057E00E4900054F0C2007F028004C2007F021299
:10058E001C5502062DE4F52A745C252AF582E43406
:10059E0000F583E0FF7425252AF8A607052AE52A2B
:1005AE00B404E5AF24AE23AD22AC218F368E358D4B
:1005BE00348C33AF28AE27AD26AC258F3A8E398DCD
:1005CE00388C37852F3BAB2D7D027F011218E4AF9F
:1005DE0024AE23AD22AC218F368E358D348C3385EF
:1005EE002C37AB2D7D027F0112117A900054EFF063
:1005FE006026786FE6B5251508E6B5261008E6B52F
:10060E00270B08E6B52806C2007F01800FE4900094
:10061E0054F0C2007F028004C2007F02121C557586
:10062E002B040209F7E52EC313F52E752901E52ECD
:10063E005401F52FE4F52A75F004E529A4252AF5D1
:10064E0082E435F0F583E5822458F582E5833400A3
:10065E00F583E0FF7425252AF8A607052AE52AB4B6
:10066E0004D5AF24AE23AD22AC218F368E358D341A
:10067E008C33AF28AE27AD26AC258F3A8E398D3808
:10068E008C37852F3BAB2DAD297F011218E4E52E5B
:10069E00C313F52EAF24AE23AD22AC218F368E358B
:1006AE008D348C33852C37AB2DAD297F0112117A09
:1006BE00900054EFF0AF297401A807088002C333ED
:1006CE00D8FC4410900055F0752B04900054E06057
:1006DE0026786FE6B5251508E6B5261008E6B52787
:1006EE000B08E6B52806C2007F01800FE490005487
:1006FE00F0C2007F028004C2007F02121C557B01F3
:10070E007A007952AD2B121B7C900050EEF0A3EFC5
:10071E00F0900050E0FFAE2B052B74522EF582E4C4
:10072E003400F583EFF0900051E0FFAE2B052B74F3
:10073E00522EF582E43400F583EFF0AF2B052B74C7
:10074E00522FF582E43400F58374EEF07B017A00CB
:10075E007952AD2B121E7EE4F52A7F507EC3121EF7
:10076E0067052AE52AC3940440F00529E529C394B8
:10077E0003500302063C020C57900055E0540FF054
:10078E00640F60030208E7E52EC313F52E752901E9
:10079E00E52D6009E52964077003020C57E52E5418
:1007AE0001F52FE4F52A75F004E529A4252AF58232
:1007BE00E435F0F583E5822458F582E5833400F5BF
:1007CE0083E0FF7425252AF8A607052AE52AB40436
:1007DE00D5AF24AE23AD22AC218F368E358D348C21
:1007EE0033AF28AE27AD26AC258F3A8E398D388C97
:1007FE0037852F3BAB2DAD29E4FF1218E4E52EC350
:10080E0013F52EAF24AE23AD22AC218F368E358D4F
:10081E00348C33852C37AB2DAD29E4FF12117A9031
:10082E000054EFF0A3E529F0752B04900054E0601E
:10083E0026786FE6B5251508E6B5261008E6B52725
:10084E000B08E6B52806C2007F01800FE490005425
:10085E00F0C2007F028004C2007F02121C557B0191
:10086E007A007952AD2B121B7C900050EEF0A3EF64
:10087E00F0900050E0FFAE2B052B74522EF582E463
:10088E003400F583EFF0900051E0FFAE2B052B7492
:10089E00522EF582E43400F583EFF0AF2B052B7466
:1008AE00522FF582E43400F58374EEF07B017A006A
:1008BE007952AD2B121E7EE4F52A7F507EC3121E96
:1008CE0067052AE52AC3940440F00529E529C39457
:1008DE0008500302079E020C57E4F529745C252983
:1008EE00F582E43400F583E0FF74252529F8A60788
:1008FE000529E529B404E5AF24AE23AD22AC218F42
:10090E00368E358D348C33AF28AE27AD26AC258F81
:10091E003A8E398D388C37852E3B900055E0FDABE5
:10092E002DE4FF1218E4E52D6021900055E0FDB492
:10093E000719C005AF28AE27AD26AC258F368E35EC
:10094E008D348C33852C37D005805C900055E0FDBE
:10095E00703DE52830E41CC005AF24AE23AD22ACBB
:10096E00218F368E358D348C33852C37D0057B0117
:10097E00E48037AF24AE23AD22AC218F368E358D79
:10098E00348C33852C37900055E0FDE4FB801BAF93
:10099E0024AE23AD22AC218F368E358D348C33852B
:1009AE002C37900055E0FDAB2DE4FF12117A90002C
:1009BE0054EFF0752B04900054E06026786FE6B586
:1009CE00251508E6B5261008E6B5270B08E6B52866
:1009DE0006C2007F01800FE4900054F0C2007F0237
:1009EE008004C2007F02121C557B017A007952AD41
:1009FE002B121B7C900050EEF0A3EFF0900050E015
:100A0E00FFAE2B052B74522EF582E43400F583EFE6
:100A1E00F0900051E0FFAE2B052B74522EF582E4C0
:100A2E003400F583EFF0AF2B052B74522FF582E4D3
:100A3E003400F58374EEF07B017A007952AD2B12FF
:100A4E001E7E020C57E4F52974542529F582E434F0
:100A5E0000F583E0FF74212529F8A6070529E5296D
:100A6E00B404E5AF24AE23AD22AC21121BC5C200E7
:100A7E007F01121C55020C57D28E758F02756803BA
:100A8E007569E890005374F3F0E4A3F0752B03D36B
:100A9E00E5699400E5689400402B121B3350F07406
:100AAE0001121C4EE4F529744B2529F8E6FFAE2BF6
:100ABE00052B74522EF582E43400F583EFF00529F0
:100ACE00E529B405E2900054E06003020BF7C20082
:100ADE007F02121C55E4F529AF2B052B74522FF50E
:100AEE0082E43400F583E4F00529E529B405E90232
:100AFE000BF7E4F52974552529F582E43400F583C6
:100B0E00E0FF74402529F8A60774402529F8E6FF72
:100B1E00748E2529F582E43400F583EFF00529E57E
:100B2E0029B405D1900054E014600E0470147B00BB
:100B3E007A00794012002680097B007A00794012F3
:100B4E001730C28EE4F58FC2B47F507EC3121E677B
:100B5E00D28E758F027568037569E890005374F430
:100B6E00F0E4A3F0752B03D3E5699400E5689400D7
:100B7E004050121B3350F0E4F529748E2529F5826E
:100B8E00E43400F583E0FF744B2529F8E6B507073A
:100B9E000529E529B405E3E5296405702504121C31
:100BAE004EE4F529744B2529F8E6FFAE2B052B7480
:100BBE00522EF582E43400F583EFF00529E529B4D1
:100BCE0005E2900054E07021C2007F02121C55E431
:100BDE00F529AF2B052B74522FF582E43400F583E3
:100BEE00E4F00529E529B405E97B017A007952ADD7
:100BFE002B121B7C900050EEF0A3EFF0900050E013
:100C0E00FFAE2B052B74522EF582E43400F583EFE4
:100C1E00F0900051E0FFAE2B052B74522EF582E4BE
:100C2E003400F583EFF0AF2B052B74522FF582E4D1
:100C3E003400F58374EEF07B017A007952AD2B12FD
:0B0C4E001E7EC28EE4F58FC2B4C2927D
:010C59002278
:081F5900121D3412009E80FBF2
:03009B00021AE264
:101AE200C0E0C0F0C083C082C0D075D00853EFFD03
:101AF2007F01121DC3300508056BE56B7002056A94
:101B0200C3E56B94F4E56A94014008756A00756B4D
:101B120000B293D3E5699400E56894004008E56952
:101B2200156970021568D0D0D082D083D0F0D0E091
:011B32003280
:0D1A9800C104C103016E00016C00016D006E
:101EFB0075985075D78F75D6FD758E15D2ACD2AF40
:011F0B0022B3
:101D9600EDD3956E4002AD6EE4FFEFC39D5018740F
:101DA600002FF582E43400F583E0121087740129D0
:0C1DB600F9E43AFA0F80E3E4F56EAF05A3
:011DC20022FE
:101E7E00AF051DEF6013C204121041F599740129CC
:0A1E8E00F9E43AFA2004E980FB228F
:101DC300E56ED394004021E56C656E6007856E6C0B
:101DD300E4F56D22E56DC394055010EF256DF56DA7
:0B1DE300C394054006D20322E4F56C17
:011DEE0022D2
:03002300021CC8F4
:101CC800C0E0C083C082C0D075D01830981AC298BE
:101CD800E56EC394505011AF6E056E74002FF582F7
:101CE800E43400F583E599F0309904C299D204D020
:081CF800D0D082D083D0E0328D
:0E1AA500C106025000C8025402BC02520514D1
:041F61007F4EDFFED2
:011F65002259
:101E1A00AB07E4FAF9F87FE87E03FDFC121C0AC35B
:101E2A00E49FFFE49E538EBF53890F8F8BF58DD2AB
:041E3A008E758F0210
:011E3E002281
:0E1F1B00538E7F5389F0438901D28CD2B222BB
:101A2000AD53AC52E4F58AF58CD28CED1D70011CDF
:101A3000144C6013A20630B201B350EF121F61A222
:101A40000630B201B350E4C28CED4C7002FF22A20A
:101A5000B29206AF8CEFFEAD8A7C00E42DFDEC3E29
:101A6000FCD3ED9555EC9554400CD3ED9553EC9586
:101A70005250037F0122C3ED9551EC9550400CD399
:0D1A8000ED9555EC955450037F02227F0038
:011A8D002236
:101DEF00121A20EF24FE600C04701D2006037F01E1
:101DFF00227F0022121A20EF640260037F0222204A
:0B1E0F0006037F01227F00227F0222D9
:10128C00A2B29206E4F530121DEFEF64016002C3C6
:10129C00220530E530C3940940EDE4F53074402567
:1012AC0030F8E4F6F53174402530F8C000E6FF253F
:1012BC00E0D000F6121DEFEF24FE600E04700D74EA
:1012CC00402530F8E64408F68002C3220531E531AA
:1012DC00C3940540D10530E530C3940B40BFE54ABB
:1012EC0030E002C322E4F53074402530F8E6FF13F9
:1012FC001313541FFEEFC4540F6EFF74402530F8C7
:10130C00E6FE1313543F6FFFEEC3136FFF744025BB
:10131C0030F8E66F30E302C3220530E530B40AC87A
:10132C00E4F531F53074402530F8E654806231052F
:10133C0030E530B40BEFE5316002C322E4F53074D4
:10134C00402530F8E6544062310530E530B40BEFFF
:10135C00E5316002C322E4F53074402530F8E654E0
:10136C002062310530E530B40BEFE5316002C32269
:10137C00E4F53074402530F8E6541062310530E560
:0B138C0030B40BEFE5316002C322D348
:011397002233
:101B330012128C5042E541C4540FFFE54054F04F5C
:101B4300F54BE543C4540FFFE54254F04FF54CE524
:101B530045C4540FFFE54454F04FF54DE547C454D5
:101B63000FFFE54654F04FF54EE549C4540FFFE52A
:091B73004854F04FF54F22C32243
:061655008B328A33893458
:10165B00E4FFAB32AA33A9348F8275830012105A80
:10166B0054F0FEEF25E02435F8A6068F8275830033
:10167B0012105AC454F0FEEF25E02436F8A6060FDC
:10168B00BF05CFE4FF74352FF8E6FE131313541F79
:10169B00FDEEC4540F6DFE74352FF8E6FD13135495
:1016AB003F6EFEEDC3136EFE74352FF8E6FD6E3004
:1016BB00E304ED4408F60FBF0ACBE4FEFF74352FAD
:1016CB00F8E6548062060FBF0BF3EE6003433F80D6
:1016DB00E4FEFF74352FF8E6544062060FBF0BF3A0
:1016EB00EE6003433F40E4FEFF74352FF8E65420D1
:1016FB0062060FBF0BF3EE6003433F20E4FEFF7463
:10170B00352FF8E6541062060FBF0BF3EE60034360
:10171B003F10E4FF74352FF8E6FE74402FF8A60651
:04172B000FBF0BF0F1
:01172F002297
:100E5A00E4F517F516F515F5147513FF751201F576
:100E6A0011F510AF13AE12AD11AC1078051210992E
:100E7A00A804A905AA06AB07E540131313541FFFDC
:100E8A00EB4FF513EAF512E9F511E8F510AF13AED9
:100E9A0012AD11FC7805121099A804A905AA06AB8F
:100EAA0007E541131313541FFFEB4FF513EAF5122D
:100EBA00E9F511E8F510AF13AE12AD11FC78051281
:100ECA001099A804A905AA06AB07E54213131354FF
:100EDA001FFFEB4FF513EAF512E9F511E8F510AF2C
:100EEA0013AE12AD11FC7805121099A804A905AA2F
:100EFA0006AB07E543131313541FFFEB4FF513EA31
:100F0A00F512E9F511E8F510AF13AE12AD11FC7840
:100F1A0003121099A804A905AA06AB07E544C4134D
:100F2A005407FFEB4FF513EAF512E9F511E8F5104E
:100F3A00E5441313135403FFE48F17F516F515F55B
:100F4A0014AE16AD15AC147805121099A804A905AB
:100F5A00AA06AB07E545131313541FFFEB4FF5170A
:100F6A00EAF516E9F515E8F514AF17AE16AD15FC56
:100F7A007805121099A804A905AA06AB07E5461335
:100F8A001313541FFFEB4FF517EAF516E9F515E8A9
:100F9A00F514AF17AE16AD15FC7805121099A80412
:100FAA00A905AA06AB07E547131313541FFFEB4F16
:100FBA00F517EAF516E9F515E8F514AF17AE16AD0B
:100FCA0015FC7805121099A804A905AA06AB07E52D
:100FDA0048131313541FFFEB4FF517EAF516E9F5FB
:100FEA0015E8F514AF17AE16AD15FC780512109971
:100FFA00A804A905AA06AB07E549131313541FFF52
:10100A00EB4FF517EAF516E9F515E8F514AF17AE43
:10101A0016AD15FC7805121099A804A905AA06AB05
:10102A0007E54A131313541FFFEB4FF517EAF5169A
:07103A00E9F515E8F51422A9
:10173000C2AF121655120E5AE4F530E4F531748B2F
:101740002530F8C000E6C313D000F6AF13AE12ADDB
:1017500011AC1078011210998F138E128D118C100C
:1017600030D709748B2530F8748046F60531E531A1
:10177000B408CB0530E530B404C1753004E4F5316C
:10178000748B2530F8C000E6C313D000F6AF17AE57
:1017900016AD15AC1478011210998F178E168D1591
:1017A0008C1430D709748B2530F8748046F60531D7
:1017B000E531B408CB0530E530B408C175355F7547
:1017C00036047B807D01E4FF12180B7F6A7E1812BD
:1017D0001F0C788EE6FF18E6FD18E6FB18E6F535D7
:1017E00075360512180B7F6A7E18121F0C7892E668
:1017F000FF18E6FD18E6FB18E6F5357536061218F3
:0A1800000B7F6A7E18121F0CD2AF96
:01180A0022BB
:10002600C2AF121655120E5AE4F536F535F534F50B
:1000360033753A40753980753814F537F53BFBFD55
:10004600FF1218E47FE27E04121F0CE4F536F53544
:10005600F534F53385133A8512398511388510370D
:10006600F53BFB7D01FF1218E47FE27E04121F0CB4
:10007600E4F536F535F534F53385173A85163985C1
:100086001538851437F53BFB7D02FF1218E4D2AF15
:010096002247
:0E1F0C007D3ADDFEEF1FAC0670011E4C70F238
:011F1A0022A4
:031D6500EB59FF38
:101D6800EF600CD28E758F027F207E00021F0CD28E
:101D78008E758F027F117E00121F0CC28EE4F58FC4
:0E1D8800C2B47F17FE121F0CD28E758F02227E
:101EC500C28EE4F58FC2B47F37FE121F0CE4FF0209
:021ED5001D6886
:021ED700A90759
:0F1ED9007B08E4FA121D65EBC313FB0ABA04F58C
:011EE80022D7
:021D0000AB072F
:101D0200E4F53D7901FAE95BFF121D68E925E0F986
:101D12000ABA08F2E4FAEB25E0FB30D702053D0AE5
:101D2200BA08F3E53D20E004E4FF80027F01121DC2
:011D32006848
:011D3300228D
:021EE900A90747
:0F1EEB007B01E4FA121D65EB25E0FB0ABA08F54E
:011EFA0022C5
:021C8F00A907A3
:101C91007B01E4F53DE9540FFFE4FAEFC313FF3094
:101CA100D702053D0ABA04F3E4FAEB59FF121D68A5
:101CB100EB25E0FB0ABA06F2E53D20E004E4FF80F3
:061CC100027F01121D6804
:011CC70022FA
:10180B008F3B8D3A8B39853538E4F537E4FFE53C72
:10181B0025E0F53CE4FEE537B40800507590182F31
:10182B00F828287302184702185202185D0218682C
:10183B0002187302187E02188902189474382EF855
:10184B00E654806207804B74382EF8E654406207EA
:10185B00804074382EF8E654206207803574382E99
:10186B00F8E654106207802A74382EF8E6540862A2
:10187B0007801F74382EF8E65404620780147438FE
:10188B002EF8E654026207800974382EF8E65401EC
:10189B0062070EEE64046003021821EF6003433C01
:1018AB00010537E53764086003021817121EC57F60
:1018BB0005121ED7AF36121C8FE4F5377438253757
:1018CB00F8E6FF121D000537E537C3940440EDAF72
:0918DB003C121EE9E4FF021D6845
:101AB300026002D002620384026400A00266019005
:101AC3001C6F000000000000000000000000000088
:0E1AD300000000000000000000000000000005
:051E6200A37F017E00DA
:101E6700C2AFEF1FAA0670011E4A60087D031DED71
:061E770060F080FAD2AF1A
:011E7D002242
:0A1F4E00C2AF7E3EDEFEDFFAD2AF26
:011F58002266
:10139800EF24F0604324F0605824F8606D24F67060
:1013A8000302142B24F2700302144424DC70030299
:1013B800145D24E470030214762478600302148E0A
:1013C80075600075617875620175632C75640075C8
:1013D800651475660002148B75600175614075624D
:1013E800017563F475640075653C7566007567C8BA
:1013F800227560027561D075620375638475640037
:101408007565A075660175679022756003756184BE
:101418007562047563B07564007565C87566017595
:1014280067B82275600475614C75620575637875D7
:10143800640175652C7566027567582275600575B7
:10144800617875620775636C7564017565687566A2
:10145800027567BC227560077561D075620A75638D
:101468008C7564017565F47566047567B0227560DE
:101478000A7561F075620D756348756403756520BA
:071488007566057567782207
:101EAF00300207D28E758F028007C28EE4F58FC283
:061EBF00B4AF3D021F4E0E
:101E3F0030010AD202753C00753D378008D2027519
:101E4F003C00753D14121EAFC202753C00753D0F6C
:031E5F00021EAFB1
:101E9800D28E758F027F107E27121E67C202753C94
:071EA80000753D14021EAF9E
:10000300AD07ED30E104D2018002C201121E3FEDC3
:0D00130030E004D2018002C201121E3F2223
:0418E4008D31AC078F
:1018E800121E98BC01047F0380027F02120003EBE2
:1018F800602FE4F9E4FFFEFDE5335480FC6004D278
:10190800018002C201121E3FAF36AE35AD34AC3392
:1019180078011210998F368E358D348C3309B920A1
:10192800D3E53BB40104D2018002C201121E3FE498
:10193800F9E4FFFEFDE5375480FC6004D201800223
:10194800C201121E3FAF3AAE39AD38AC377801123A
:1019580010998F3A8E398D388C3709B920D3E4F92C
:10196800E53130E204D2018002C201121E3FE531A6
:1019780025E0F53109B903E8D28E758F027F107E14
:0B19880027121E67C28EE4F58FC2B468
:011993002231
:081BC5008F338E328D318C301C
:101BCD00121E987F02120003E4FBE4FFFEFDE530D8
:101BDD005480FC6004D2018002C201121E3FAF335B
:101BED00AE32AD31AC3078011210998F338E328D0B
:0C1BFD00318C300BBB20D3D28E758F02D0
:011C090022B8
:02157800AC07BE
:10157A007932AF0119EF7003021653E4F583F5824D
:10158A00C28CF58CF58A20B20D121E62E582B4C4B3
:10159A00F5E583B409F0E58264C47004E58364095F
:1015AA0060D0E4F583F582D28C30B20D121E62E56A
:1015BA0082B4C4F5E583B409F0E58264C47004E535
:1015CA0083640960ADE4F583F582C28CAF8CEFFECB
:1015DA00AD8AED7A002400F53DEA3EF53CE4F58C4F
:1015EA00F58AD28CC3E561953DE560953C5083C38D
:1015FA00E53D9563E53C9562400302157C20B20DFA
:10160A00121E62E582B4C4F5E583B409F0E582648A
:10161A00C47004E5836409700302157CC28CAF8C24
:10162A00EFFEAD8AED7A002400F53DEA3EF53CD3A3
:10163A00E53D9567E53C9566400302157CEC13137E
:0A164A00543F2CFF121F4ED322C3A1
:011654002273
:04148F008D30AC07E9
:10149300E4F534F535F536AF30121398121E98BCC7
:1014A300010A7F0312000375340280087F021200D1
:1014B30003753407D28E758F02AF3012157840034F
:1014C30002156FE4F531E531C39534400302156528
:1014D300E4F532E53125E025E02532246FF8E4F622
:1014E300F533E53125E025E02532246FF8C000E629
:1014F300FF25E0D000F6A2B2920030000FE53125BF
:10150300E025E02532246FF8740146F6E4F535F55D
:1015130036A2B2300001B3400D0536E53670020540
:1015230035121E6380EBD3E5369561E53595604052
:10153300028039E53075F003A4AEF07802CEC31310
:10154300CE13D8F9FF121F4E0533E533C394084079
:10155300910532E532C3940450030214D6053102D7
:1015630014C9C28EE4F58FC2B47F0122C28EE4F5A2
:041573008FC2B4FF70
:011577002251
:04117A00A905AC0710
:10117E00E4F53AF53BAF37121398121E98BC0104F2
:10118E007F0380027F02120003EB64017034F53896
:10119E00E4FFFEFDE5335480FC6004D2018002C200
:1011AE0001121E3FAF36AE35AD34AC33780112109E
:1011BE00998F368E358D348C330538E538C39420AF
:1011CE0040CEC201121E3FE4F538E930E204D201EE
:1011DE008002C201121E3FE925E0F90538E538C349
:1011EE00940340E6D28E758F02AF37121578400306
:1011FE00021283E4F538746F2538F8E4F6F5397485
:10120E006F2538F8C000E6FF25E0D000F6A2B292B6
:10121E0000300009746F2538F8740146F6E4F53A8B
:10122E00F53BA2B2300001B3400D053BE53B700229
:10123E00053A121E6380EBD3E53B9561E53A956066
:10124E0040028031E53775F003A4AEF07802CEC3CC
:10125E0013CE13D8F9FF121F4E0539E539C3940882
:10126E00409D0538E538C39404408BC28EE4F58F5B
:0D127E00C2B47F0122C28EE4F58FC2B4FF1E
:01128B002240
:100C5A0000C1814001C0804101C0804100C1814082
:100C6A0001C0804100C1814000C1814001C0804172
:100C7A0001C0804100C1814000C1814001C0804162
:100C8A0000C1814001C0804101C0804100C1814052
:100C9A0001C0804100C1814000C1814001C0804142
:100CAA0000C1814001C0804101C0804100C1814032
:100CBA0000C1814001C0804101C0804100C1814022
:100CCA0001C0804100C1814000C1814001C0804112
:100CDA0001C0804100C1814000C1814001C0804102
:100CEA0000C1814001C0804101C0804100C18140F2
:100CFA0000C1814001C0804101C0804100C18140E2
:100D0A0001C0804100C1814000C1814001C08041D1
:100D1A0000C1814001C0804101C0804100C18140C1
:100D2A0001C0804100C1814000C1814001C08041B1
:100D3A0001C0804100C1814000C1814001C08041A1
:100D4A0000C1814001C0804101C0804100C1814091
:100D5A0000C0C101C30302C2C60607C705C5C40451
:100D6A00CC0C0DCD0FCFCE0E0ACACB0BC90908C8C1
:100D7A00D81819D91BDBDA1A1EDEDF1FDD1D1CDCB1
:100D8A0014D4D515D71716D6D21213D311D1D01021
:100D9A00F03031F133F3F23236F6F737F53534F411
:100DAA003CFCFD3DFF3F3EFEFA3A3BFB39F9F83881
:100DBA0028E8E929EB2B2AEAEE2E2FEF2DEDEC2C71
:100DCA00E42425E527E7E62622E2E323E12120E0E1
:100DDA00A06061A163A3A26266A6A767A56564A4D1
:100DEA006CACAD6DAF6F6EAEAA6A6BAB69A9A86841
:100DFA0078B8B979BB7B7ABABE7E7FBF7DBDBC7C31
:100E0A00B47475B577B7B67672B2B373B17170B0A0
:100E1A005090915193535292965657975595945490
:100E2A009C5C5D9D5F9F9E5E5A9A9B5B9959589800
:100E3A00884849894B8B8A4A4E8E8F4F8D4D4C8CF0
:100E4A004484854587474686824243834181804060
:081B7C008B308A3189328D3370
:101B84007FFF7DFFAE331533EE6031AB300532E5B8
:101B940032AA317002053114F91210416FFB7A0038
:101BA400245AF582EA340CF583E4936DFF745A2BBE
:101BB400F582EA340DF583E493FD80C8EFFEEDFF72
:011BC40022FE
:1019A000021F59E493A3F8E493A34003F68001F2E5
:1019B00008DFF48029E493A3F85407240CC8C33348
:1019C000C4540F4420C8834004F456800146F6DF17
:1019D000E4800B0102040810204080901A8EE47EFF
:1019E000019360BCA3FF543F30E509541FFEE4930C
:1019F000A360010ECF54C025E060A840B8E493A3D3
:101A0000FAE493A3F8E493A3C8C582C8CAC583CAFD
:101A1000F0A3C8C582C8CAC583CADFE9DEE780BEB5
:011AE1000004
:10104100BB010689828A83E0225002E722BBFE02AD
:09105100E32289828A83E49322E0
:10105A00BB010CE58229F582E5833AF583E022504B
:10106A0006E92582F8E622BBFE06E92582F8E22295
:0D107A00E58229F582E5833AF583E49322AF
:10108700BB010689828A83F0225002F722BBFE0148
:02109700F32242
:101C0A00C2D5E830E70FB2D5E4C39BFBE49AFAE405
:101C1A0099F9E498F8EC30E717B2D5121C40121083
:101C2A00E8E4C39BFBE49AFAE499F9E498F88003A0
:101C3A001210E830D50DE4C39FFFE49EFEE49DFD3B
:041C4A00E49CFC22F8
:10109900E8600FEFC333FFEE33FEED33FDEC33FCB5
:0310A900D8F12259
:1010AC0075F008758200EF2FFFEE33FECD33CDCCFB
:1010BC0033CCC58233C5829BED9AEC99E58298407E
:1010CC000CF582EE9BFEED9AFDEC99FC0FD5F0D65B
:1010DC00E4CEFBE4CDFAE4CCF9A88222B800C1B985
:1010EC000059BA002DEC8BF084CFCECDFCE5F0CBC3
:1010FC00F97818EF2FFFEE33FEED33FDEC33FCEBFC
:10110C0033FB10D703994004EB99FB0FD8E5E4F9B6
:10111C00FA227818EF2FFFEE33FEED33FDEC33FCA3
:10112C00C933C910D7059BE99A4007EC9BFCE99A97
:10113C00F90FD8E0E4C9FAE4CCFB2275F010EF2FDC
:10114C00FFEE33FEED33FDCC33CCC833C810D707DC
:10115C009BEC9AE899400AED9BFDEC9AFCE899F817
:0E116C000FD5F0DAE4CDFBE4CCFAE4C8F922AA
:00000001FF
